:02000002E0001C
:10B000000000042009B30E0031B30E0033B30E006C
:10B0100035B30E0037B30E0039B30E000000000048
:10B0200000000000000000000000000065D00E00DD
:10B030003DB30E00000000003FB30E0041B30E0010
:10B0400043B30E0043B30E0043B30E0043B30E00F0
:10B0500043B30E0043B30E0043B30E0043B30E00E0
:10B0600043B30E0043B30E0043B30E0043B30E00D0
:10B0700043B30E0043B30E0043B30E0043B30E00C0
:10B0800061EA0E0043B30E0043B30E0043B30E005B
:10B0900043B30E0043B30E0001C50E0043B30E00D0
:10B0A00043B30E0043B30E0043B30E0043B30E0090
:10B0B00043B30E0043B30E00000000000000000088
:10B0C00043B30E0043B30E0043B30E0043B30E0070
:10B0D000C5DF0E0043B30E0043B30E0043B30E00B2
:10B0E000AD130F00111D0F0071370F00000000009D
:10B0F0000000000043B30E000000000043B30E0048
:10B10000000000000000000000000000000000003F
:10B11000000000000000000000000000000000002F
:10B12000000000000000000000000000000000001F
:10B13000000000000000000000000000000000000F
:10B1400000000000000000000000000000000000FF
:10B1500000000000000000000000000000000000EF
:10B1600000000000000000000000000000000000DF
:10B1700000000000000000000000000000000000CF
:10B1800000000000000000000000000000000000BF
:10B1900000000000000000000000000000000000AF
:10B1A000000000000000000000000000000000009F
:10B1B000000000000000000000000000000000008F
:10B1C000000000000000000000000000000000007F
:10B1D000000000000000000000000000000000006F
:10B1E000000000000000000000000000000000005F
:10B1F000000000000000000000000000000000004F
:10B200000348044B834202D0034B03B118477047F5
:10B21000945B0020945B0020000000000548064B72
:10B220001B1AD90F01EBA301491002D0034B03B144
:10B2300018477047945B0020945B002000000000DA
:10B2400010B5064C237843B9FFF7DAFF044B13B16E
:10B250000448AFF300800123237010BDA85B0020D9
:10B2600000000000AC840F0008B5054B1BB1054978
:10B270000548AFF30080BDE80840FFF7CFBF00BF2F
:10B2800000000000AC5B0020AC840F00A3F5803A06
:10B29000704700BF174B002B08BF134B9D46FFF7AD
:10B2A000F5FF00218B460F461348144A121A09F085
:10B2B00012F80E4B002B00D098470D4B002B00D0FE
:10B2C00098470020002104000D000D48002802D0FE
:10B2D0000C48AFF3008009F051F82000290001F07C
:10B2E0001FFD08F057FA00BF000008000000000032
:10B2F0000000000000000420A85B002038A400200B
:10B3000000000000000000000649074A074B9B1A96
:10B3100003DD043BC858D050FBDC00F0D3FDFFF741
:10B32000B9FF000090850F0078590020A85B00202D
:10B33000FEE7FEE7FEE7FEE7FEE7FEE7FEE7FEE7E5
:10B34000FEE7FEE74B1C30B5DB00044612F00300BD
:10B350009BB20DD1074D2A601A44074B1A60074B68
:10B360001870074B1870074B1C80074B198030BDB5
:10B370000720FCE7D05B0020CC5B0020C85B0020EE
:10B38000C95B0020C65B0020C45B00202DE9F347A9
:10B39000DFF8C480B8F800308B4206460D461746E9
:10B3A0004DD300240DF107008DF8074000F094F80C
:10B3B000254B264A26481B78008892F800C0844511
:10B3C0005FFA8CF138BF0131DBB238BFCCB2A34297
:10B3D0002FD014781178CBB2884286BF0133DBB20C
:10B3E0000023E4B213709DF8070000F0A3F84FF6B5
:10B3F000FF739C4225D0DFF86490D9F800304FEA03
:10B40000C40A43F8347003EBC402AEB1A5B1114BCA
:10B41000B8F800001B682A4604FB0030314609F0EA
:10B4200027F8D9F8003053449D80002002B0BDE8D1
:10B43000F0874FF6FF74D6E700239380F5E70920E5
:10B44000F4E70420F2E700BFC95B0020C85B0020DE
:10B45000C45B0020CC5B0020C65B0020D05B0020DA
:10B4600070B5104C104D22782B789A4200D170BDE7
:10B470000E480F4A2378126806880E4802EBC30173
:10B48000006852F83320898803FB060090470A4978
:10B4900022780988D3B2914286BF0133DBB2002300
:10B4A0002370E0E7C95B0020C85B0020C65B00207A
:10B4B000D05B0020CC5B0020C45B0020EFF3058351
:10B4C000C3F308032BB9EFF31480C04300F001006D
:10B4D000704701207047000070B50446FFF7EEFF8B
:10B4E000012803D00F49432000F060F8EFF31086E5
:10B4F00072B60D4A9068012380B993600B4B0C4DD6
:10B50000D3F8801029401160C3F88050D3F884101C
:10B5100051604FF0FF32C3F884200346237006B910
:10B5200062B670BD306E0F00D45B002000E100E019
:10B53000FC06FFBD10B50446FFF7C0FF012803D08D
:10B540000949512000F032F8084B9A685AB154B9B1
:10B55000EFF3108172B6064A1868106058685060A0
:10B560009C6001B962B610BD306E0F00D45B002044
:10B5700000E100E030B53AB11368DB430A4D014405
:10B58000884204D1D84330BD4FF0FF33F6E710F8BE
:10B59000012B5340082213F0010418BF2C46013A36
:10B5A00084EA5303F7D1EBE72083B8ED07B5CDE983
:10B5B00000016A46002144F2020001F051FA03B092
:10B5C0005DF804FB10B561B1B2FBF3F403FB142486
:10B5D000A4B244B9C0E9001484608281C3812046CA
:10B5E00010BD0E20FCE70920FAE782B050E8022FD8
:10B5F000C188B2EB324F4FF0000317BF92B241EA5D
:10B60000014142EA014104E04268B2EB324F08BF17
:10B61000012340E80212002AE8D18DF807309DF896
:10B620000730002B0CBF1120002002B0704737B547
:10B6300050E8013F9DB2C48925448489A54228BFB2
:10B640002D1B0489A54202BFBFF32F8F002207E004
:10B65000C5EA030540E80154002CE9D14FF001028E
:10B660008DF803200193019A0A609DF8031001F000
:10B67000FF0321B1006810FA82F003B030BD184614
:10B68000FBE70A884B889A4209D150E8012FC2EAA9
:10B69000024240E80123002BF7D10120704700202F
:10B6A000704737B550E8023F1FFAA3F5C488A5429A
:10B6B00002BFBFF32F8F00220DE0C4892544848987
:10B6C000A54228BF2D1BC3EA054540E80254002CC3
:10B6D000E8D14FF001028DF803200193019A0A602E
:10B6E0009DF8031001F0FF0321B1006800EB124048
:10B6F00003B030BD1846FBE70A884B889A4209D14F
:10B7000050E8022FC2EA224240E80223002BF7D180
:10B71000012070470020704710B5034653E8000F22
:10B720000A4643E8002494F0000FF7D110BD10B58D
:10B73000034653E8000F40EA010243E8002494F076
:10B74000000FF6D110BD10B5034653E8002F02EAF2
:10B75000010043E8000494F0000FF6D110BD012170
:10B76000FFF7E5BF0021FFF7EEBF000010B504466C
:10B77000002834D003681BB91A49FF20FFF716FFD1
:10B78000636823B917494FF48070FFF70FFFA36870
:10B7900023B9144940F20110FFF708FFE36823B909
:10B7A00010494FF48170FFF701FF238A23B90D4937
:10B7B00040F20310FFF7FAFED4E9012321689B1A37
:10B7C000DBB20A60013BDBB2FF2B226802D1002012
:10B7D000107110BD1168481C10600B70F2E70E204C
:10B7E000F7E700BF746E0F0037B5044620B914495F
:10B7F0004FF49270FFF7DAFE00250DF107008DF887
:10B800000750FFF769FE2268616813688B4210D900
:10B81000591E116013F8013C228AE56802FB0355AA
:10B820002268A36811685B1A1179DBB2994238BFAC
:10B8300013719DF80700FFF77DFE284603B030BD69
:10B84000746E0F0037B50C46054620B9104940F21A
:10B850004710FFF7ABFE24B90D494FF4A470FFF772
:10B86000A5FE00230DF107008DF80730FFF734FE29
:10B870002A681368591C1160EA68A41A2A8AB4FB62
:10B88000F2F41C709DF80700FFF754FE03B030BDC2
:10B89000746E0F0070B50D461646044618B9084977
:10B8A0005520FFF783FE1DB905495620FFF77EFEA0
:10B8B00025602B6831462046BDE87040184700BF20
:10B8C000B36E0F002DE9F041DDF818800E461746E3
:10B8D0001D46044618B922498820FFF767FE1FB9A4
:10B8E0001F498920FFF762FE23681BB91C498A2083
:10B8F000FFF75CFE45BB1A498B20FFF757FEB207E6
:10B9000003D017499120FFF751FEBB0703D014491C
:10B910009220FFF74BFEE3689E4204D32269731E18
:10B920002B44934203D90E499320FFF73FFE23682F
:10B93000CDF81880D3F80CE03A462B463146204625
:10B94000F446BDE8F041604763685A68B5FBF2F31E
:10B9500002FB1353002BD2D001498E20CDE700BF4C
:10B96000B36E0F002DE9F0410D4616461F46044602
:10B9700018B919499E20FFF719FE23681BB916490B
:10B980009F20FFF713FE1EB91349A020FFF70EFEFC
:10B9900063681B68013B2B4203D00F49A320FFF7CC
:10B9A00005FE63681A68E3689D4205D36B1E06FBBB
:10B9B00002332269934203D90749A520FFF7F6FD18
:10B9C0002368D3F810E032463B4629462046F44629
:10B9D000BDE8F041604700BFB36E0F0070B550B9CD
:10B9E0000E4D0F4C0026641B1423B4FBF3F4B44239
:10B9F00008D1002010E00368002BF1D0BDE87040B2
:10BA0000DB6918472B6813B901361435EFE7DB699A
:10BA1000284698470028F7D070BD00BF945B0020EF
:10BA2000A85B0020014B436000207047447D0F005D
:10BA30000846704700207047024B1868003818BF4E
:10BA400001207047E05B002008B50248FFF78AFE3E
:10BA5000002008BDE05B002008B510461A4608F03B
:10BA600007FD002008BD00002DE9F041804686B0AA
:10BA700011480F4616461D46FFF771FE0446C8B929
:10BA8000AA083146384600F049FE0B48FFF76AFE27
:10BA9000D8F8083053B101228DF800200C9A059295
:10BAA000CDE90147CDE9036568469847204606B0D1
:10BAB000BDE8F0811124F9E7E05B00202DE9F043B7
:10BAC000814687B014480E4615469846FFF747FE54
:10BAD0000446F0B90746BD4215D10F48FFF742FEB4
:10BAE000D9F808305BB102228DF800200022CDE9A0
:10BAF0000126CDE90325CDF81480684698472046F5
:10BB000007B0BDE8F08306EB073000F0D9FD013740
:10BB1000E1E71124F3E700BFE05B002029DF704775
:10BB200028DF704770B50668B36886B004460D46D6
:10BB300073B114220021684608F0CDFBA368059379
:10BB40002379019533B1012B0ED0B368684698472D
:10BB500006B070BD01238DF8003023690293E368BD
:10BB6000039363690493F0E702238DF80030E368E0
:10BB70001B030293F5E7084670470020704700005A
:10BB8000024B187A003818BF01207047EC5B002088
:10BB9000034B187A0122B0FA80F05A7440097047BA
:10BBA000EC5B002008B510461A4608F061FC002046
:10BBB00008BD000008B514220021044808F08BFBE2
:10BBC0000348FFF712FD002008BD00BFEC5B00201A
:10BBD000005C002010B5094C094B43602046FFF77C
:10BBE000BEFD48B900F072FC064920741C230648CB
:10BBF0004FF4EE72FFF7E6FC002010BDEC5B002076
:10BC0000707D0F00105C0020005C002038B5224CD5
:10BC1000224D237A3BB922492248FFF742FD286092
:10BC200008B9606038BD022323722B681A7972B19B
:10BC3000012A22D028680321FFF774FF0023237212
:10BC40006360BDE8384016491648FFF755BDD3E993
:10BC50000520121A142AD3E9031328BF14229208CC
:10BC6000012A014438BF01221844FFF757FF50B1A1
:10BC70001128DFD101232372D4E7D3E90303184449
:10BC8000FFF74EFFF3E7237C002BCBD1BDE8384014
:10BC9000022000F009B800BFEC5B0020E85B002048
:10BCA000E45B0020005C002038B5224C237A002B96
:10BCB0003FD0022B09D103282ED01F4B00221B6836
:10BCC000E2601A793AB1012A20D0637C6BBBBDE8EF
:10BCD0003840FFF79BBFD3E905128D1A142D94BF8E
:10BCE000521914329A619142EFD102284FF00003A9
:10BCF00008BF19462372104B18BF0D211868FFF7B3
:10BD000011FF0E490E48FFF7F7FCDEE71A69013212
:10BD10001A615B699A42E7E7E3680133082B01D8AF
:10BD2000E360D2E70023E360DFE7BDE8384000F0DE
:10BD3000BDBB38BDEC5B0020E85B0020E45B00206D
:10BD4000005C0020831E012B01D8FFF7ADBF7047B8
:10BD500000F0FD03012B08D1044B00225A74421E4F
:10BD6000504250411874FFF751BF7047EC5B002000
:10BD700008B50648FFF7F3FC30B9054B5B7C1BB9EF
:10BD8000BDE80840FFF742BF08BD00BFF05B0020E0
:10BD9000EC5B00202DE9F34180460D460F4801A9D8
:10BDA00016461F46FFF743FC0446A8B11C2200219B
:10BDB00008F091FA2D0B0123237101A90748C4F85B
:10BDC0000080A760E5606661FFF75BFCFFF7D0FFCE
:10BDD000002002B0BDE8F0810420FAE7005C0020FA
:10BDE0002DE9F74381468846104801A917461E46AB
:10BDF000FFF71DFC0446B0B11C22002108F06BFACD
:10BE000000250A9BA36001A9C4E9037807482571AE
:10BE1000C4F800906661FFF734FCFFF7A9FF2846DD
:10BE200003B0BDE8F0830420FAE700BF005C002007
:10BE300038B50D46044618B908495020FFF7B6FB3F
:10BE40001DB906495120FFF7B1FB25602B686360DF
:10BE50006A68934208BF0023636038BDF66E0F0026
:10BE600010B5044618B90B496320FFF79FFB236800
:10BE70001BB908496420FFF799FB636843B1226846
:10BE800091680B4463605268934204BF002363606F
:10BE900010BD00BFF66E0F004FF08053D3F8302175
:10BEA000082A03BFD3F83401B0FA80F0400900201B
:10BEB00070470000024AD2F80034002BFBD07047D4
:10BEC00000E0014010B54FF08053D3F83021082A2C
:10BED0004ED14FF080420021C2F80C11C2F810116F
:10BEE000C2F8381502F54042D3F80414C2F8201500
:10BEF000D3F80814C2F82415D3F80C14C2F8281586
:10BF0000D3F81014C2F82C15D3F81414C2F8301555
:10BF1000D3F81814C2F83415D3F81C14C2F840151D
:10BF2000D3F82014C2F84415D3F82414C2F84815E5
:10BF3000D3F82814C2F84C15D3F82C14C2F85015B5
:10BF4000D3F83014C2F85415D3F83414C2F860157D
:10BF5000D3F83814C2F86415D3F83C14C2F8681545
:10BF6000D3F84014C2F86C15D3F84434C2F87035D5
:10BF7000FFF792FF18B1404B404AC3F88C26FFF7F9
:10BF80008BFF18B13E4BFB22C3F81825FFF784FF47
:10BF900058B14FF080424FF08051D2F8E43ED1F8D2
:10BFA000581261F30303C2F8E43EFFF775FF20B1B6
:10BFB000344B4FF40072C3F840264FF08053D3F84F
:10BFC0003031082B09D14FF08043D3F80024D20739
:10BFD00044BF6FF00102C3F800242B4AD2F8883026
:10BFE00043F47003C2F88830BFF34F8FBFF36F8FF5
:10BFF0004FF08053D3F83021082A0BD1D3F83431D5
:10C00000032B81BF4FF01023D3F808224FF0804359
:10C01000C3F858254FF01023D3F80022002A03DB81
:10C02000D3F80432002B22DA184901234FF01020F4
:10C03000C1F804351224FFF73DFFC0F80042FFF7B6
:10C0400039FFC0F80442FFF735FF0023C1F804357B
:10C05000FFF730FFBFF34F8F0B490D4BCA6802F457
:10C06000E0621343CB60BFF34F8F00BFFDE7094B86
:10C07000094A1A6010BD00BF00500040488103000B
:10C0800000F000400090024000ED00E000E00140C0
:10C090000400FA05785900200090D00338B520221A
:10C0A000044608300D4608F0E3F92022A91804F1EF
:10C0B000280008F0DDF9002038BD00002DE9F3412B
:10C0C0001B4D98461B4B036004460E462846012133
:10C0D0001746FFF721FBBFF35F8F30BB00F0F6F888
:10C0E0003B46089ACDF8008006F10801204606F08C
:10C0F000E3F9044600F0F8F82B68012B03D00E4951
:10C100009320FFF753FABFF35F8F00232B6044B1F6
:10C110000A4948F2425248F216538C420CBF144668
:10C120001C46204602B0BDE8F08148F20454F8E70E
:10C13000EC6D0020DD55AABB4E6F0F008408F000A7
:10C140000E4B984214D00AD8B8B10D4948F2165295
:10C1500048F20153884214BF104618467047094BF5
:10C16000984208D0084948F2165248F20353F1E7C2
:10C1700048F20350704748F2025070470102F00045
:10C180000002F0000202F0000F02F00008B50830D3
:10C1900006F0FCF9BDE80840FFF7D2BF10B5064C29
:10C1A0002368012B03D005499320FFF7FFF9BFF364
:10C1B0005F8F0023236010BDEC6D00204E6F0F00D9
:10C1C00013681F2B70B505460E46144619D9012178
:10C1D0000F48FFF7A1FABFF35F8FA8B900F076F818
:10C1E000314605F1080006F03DFA054600F07CF8FE
:10C1F000FFF7D4FF2846FFF7A3FF08B920232360E9
:10C2000070BD48F21450FBE748F20450F8E700BF55
:10C21000EC6D00202DE9F04105460E46184801213D
:10C220001446FFF779FABFF35F8F20BB00F04EF89A
:10C23000DFF850800835B4F5805F274628BF4FF4FB
:10C24000805731463A46404608F012F93A46414690
:10C25000284606F0B5F9E41B3E4450B9002CEAD15B
:10C2600000F042F8FFF79AFF2046BDE8F041FFF7E3
:10C2700067BF0446F4E748F20450BDE8F08100BF10
:10C28000EC6D0020EC5D0020024B0020C3F800059F
:10C29000704700BF00A0025038B50A4B00251D6052
:10C2A000BFF35F8F084C0123C4F8003506F00AFA8B
:10C2B000C4F8005520B1052848F2035018BF0320E8
:10C2C00038BD00BFEC6D002000A00250044B0122DD
:10C2D000C3F80025034B4FF480625A60704700BFDB
:10C2E00000A0025000E100E0064B0022C3F8002548
:10C2F000054B4FF48062C3F88420BFF34F8FBFF328
:10C300006F8F704700A0025000E100E010DF70471F
:10C3100011DF704713B5044609496846FFF788FDE9
:10C32000019808B902B010BDD0E900312046984705
:10C3300018B16846FFF794FDF2E71120F2E700BF5D
:10C34000B87D0F0013B5044607496846FFF770FD36
:10C35000019B0BB902B010BD2046D3E900219047E4
:10C360006846FFF77DFDF3E7AC7D0F00084B9A6848
:10C3700022B11A6822F480021A607047054B4FF40C
:10C380008002C3F88020BFF34F8FBFF36F8F7047D9
:10C39000D45B002000E100E00B4991F81623EC2368
:10C3A00052091341DB0706D5084B9A683AB94FF496
:10C3B00080030B60704742F2020000F09FBB1A68D6
:10C3C00042F480021A60704700E100E0D45B002074
:10C3D000F7B5194F3C7864BB184E012520463570DF
:10C3E000FFF798FF112821D02046FFF7ABFF144B31
:10C3F0008DF80340186801900DF10300FFF76CF809
:10C40000104901A8FFF782FF0446B0FA80F0400906
:10C4100038709DF80300FFF78DF83CB90A4B347073
:10C420001C70FFF7B9FF2846FFF78CFF204603B0CA
:10C43000F0BD0824FAE700BFF26D0020F06D002087
:10C44000C47D0F0061CA0E00F16D0020F7B5154FD5
:10C450003B781BB3144E01203070FFF75BFF1128AF
:10C460004FF000051CD00220FFF76CFF0DF1070014
:10C470008DF80750FFF730F8FFF74AFF04469DF8A4
:10C4800007003D70FFF756F82CB903203470FFF712
:10C490006DFFFFF757FF204603B0F0BD0824FAE711
:10C4A0002C46F8E7F26D0020F06D0020054B1B785C
:10C4B00033B1054B1B780BB1FFF7C8BFFFF788BF3F
:10C4C00008207047F06D0020F26D0020014B1878B5
:10C4D000704700BFF26D002007B508496846FFF7B6
:10C4E000A7FC019B13B903B05DF804FBD3E900205E
:10C4F00090476846FFF7B4FCF3E700BFA07D0F004C
:10C50000FFF7EABF60DF704769DF704761DF7047A0
:10C5100030B5134DADF5017D4FF4FA740DF1020104
:10C5200003A8ADF80240FFF7F1FF70B9294601A852
:10C53000FFF77EFC029B002BF0D003A8D3E900217B
:10C54000904701A8FFF78CFCF4E7052805D00DF50E
:10C55000017DBDE8304000F0D1BA0DF5017D30BD60
:10C56000C87D0F00024B1B780BB1FFF7D1BF70479E
:10C57000F36D002018B1034B0360002070470E20BC
:10C58000704700BF78590020F0B5074685B00D46CA
:10C5900000295DD02F4B0B600C22002101A807F071
:10C5A0009AFE012606232A68ADF8083001A920204A
:10C5B0008DF804708DF80660FFF7A6FF0C220021AD
:10C5C00001A807F088FE00242A688DF8056001A9FB
:10C5D0004020ADF80640FFF797FF0C22214601A846
:10C5E00007F079FEF7232A68ADF8063001A9232069
:10C5F0008DF80470FFF788FF0C22214601A807F090
:10C600006AFE2A688DF8046001A93046FFF77CFFB6
:10C610000C22214601A807F05EFE4FF4B0632A68A1
:10C62000019301A9A120FFF76FFF0C22214601A869
:10C6300007F051FE9DF804302A6864F3000301A955
:10C64000A0208DF80430FFF75FFF204605B0F0BD55
:10C650000E20FBE77859002008B5FFF753FF10B90B
:10C66000014B01221A7008BDF36D00204BDF7047AB
:10C670001FB50E4C01A8FFF7F9FF70B9214602A8BB
:10C68000FFF7D6FB039B002BF4D00198D3E90021E0
:10C69000904702A8FFF7E4FBF4E7052804D004B0B4
:10C6A000BDE8104000F02ABA04B010BDD47D0F00E0
:10C6B000024AD2F80034002BFBD0704700E0014062
:10C6C0000A4908B50223C1F80435BFF36F8FBFF3E1
:10C6D0004F8FC1F80805FFF7EBFF0023C1F80435C1
:10C6E000BFF36F8FBFF34F8F08BD00BF00E0014065
:10C6F00010B5094C0123C4F80435BFF36F8FBFF3A5
:10C700004F8F0160FFF7D4FF0023C4F80435BFF357
:10C710006F8FBFF34F8F10BD00E0014070B50E4E1C
:10C7200001231546C6F80435BFF36F8FBFF34F8F53
:10C730000024AC4207D10023C6F80435BFF36F8F45
:10C74000BFF34F8F70BD51F8243040F82430FFF70D
:10C75000AFFF0134EDE700BF00E00140034620B128
:10C7600031B10020C1E90003704748F21050704712
:10C7700048F21350704730B1036848F240508B4282
:10C7800008BF0020704748F21050704728B148F2A7
:10C790001150914208BF0020704748F21050704776
:10C7A00070B506460C461D46FFF7D8FF50B9B37961
:10C7B0004AB1AB420AD111462046FFF76FFC08B9D7
:10C7C000044B236070BD48F21050FBE748F2115053
:10C7D000F8E700BF7052464D2DE9F0470C4605467C
:10C7E00014492046DDE9088916461F46FFF7C3FFB6
:10C7F00080B963685A79494652004046FFF7C6FF40
:10C8000040B99EB145B94FF4DA700B49FEF7CEFE40
:10C8100048F21550BDE8F087CDF820803B463246FF
:10C8200021462846BDE8F047FFF748BC48F21050C3
:10C83000F0E700BF7052464D896F0F0010B50446F7
:10C8400038B149B141600B68984708B9044B23607F
:10C8500010BD48F20150FBE748F21050F8E700BF66
:10C860006E524648F0B4134648B10768094EB742C5
:10C870000AD161B12AB14368F0BC5B68184748F23D
:10C8800001531846F0BC704748F20253F9E748F2EA
:10C890001053F6E76E524648F0B460B107680C4E8C
:10C8A000B7420CD171B143681568DC68A5420CD35E
:10C8B000F0BC9B68184748F20150F0BC704748F242
:10C8C0000250FAE748F21350F7E748F21450F4E741
:10C8D0006E5246482DE9F0410446DDE906781546DA
:10C8E0001E46FFF7ABFF60B9324629462046FFF7E8
:10C8F000B9FF30B9424639462046BDE8F041FFF75E
:10C90000CBBFBDE8F0810000F8B50A4F0A4C0B4ED2
:10C910000123E41B3370E4080025AC4203D1022359
:10C9200033700020F8BD57F8353098470028F9D10A
:10C930000135F2E728850F0030850F00F46D0020E7
:10C9400038B50D46044618B908493320FEF72EFEC7
:10C95000691E21442046814200D238BD03780A78FE
:10C9600000F8012B01F80139F5E700BFCE6F0F0089
:10C9700070B50D461446064618B90A494520FEF71B
:10C9800015FE1DB907494620FEF710FE621E32440F
:10C99000013DB24200D270BD15F8013F02F80139E5
:10C9A000F7E700BFCE6F0F0070B5164604460D4680
:10C9B000FFF7DEFF3246A919A019BDE87040FFF766
:10C9C000D7BF38B50D460446FFF7BAFF29466019B0
:10C9D000BDE83840FFF7B4BFBFF34F8F0549064BA2
:10C9E000CA6802F4E0621343CB60BFF34F8F00BF0D
:10C9F000FDE700BF00ED00E00400FA0508B5044BB8
:10CA0000D3F8F030DB0700D500BEFFF7E5FF00BF2D
:10CA100000ED00E010B502685309044618D0012B60
:10CA20004FF6FF7318BF002302F01F02D340DB074D
:10CA300004D409494FF4F670FEF7B8FD23681F2BA4
:10CA400083BF03F01F03236004484FF0A04010BDD4
:10CA50004FF0FF33E8E700BF14700F0000030050F1
:10CA60001C4DEB7883B506460F469046D3B11A4C61
:10CA70001A492368D86807F099FB2B78A3B9236873
:10CA80001749D86807F092FB2068CDF80080154957
:10CA9000C0683B46324607F089FB23681249D868D4
:10CAA00007F084FBFFF7AAFF2B782268012BD068E0
:10CAB00005D10E4A0E49762307F078FBE4E72B7880
:10CAC000022BE1D176230093084A0A4B0A4907F06A
:10CAD0006DFBD9E77C590020D059002046700F002B
:10CAE00089700F0099700F0092700F00597E0F002F
:10CAF00053700F005D700F007D700F001A4DEB78C2
:10CB000007B50646BBB1194C19492368D86807F028
:10CB10004DFB2B788BB923681649D86807F046FB84
:10CB200023681549D868324607F040FB236813494B
:10CB3000D86807F03BFBFFF761FF2B782268012BD9
:10CB4000D06805D10E4A0F497D2307F02FFBE7E798
:10CB50002B78022BE4D17D230093094A0A4B0B4921
:10CB600007F024FBDCE700BF7C590020D0590020EF
:10CB700046700F0089700F00D0700F0092700F0088
:10CB8000427E0F0053700F005D700F007D700F002C
:10CB900030B54FF080430122C3F878254FF01023C1
:10CBA000504CD3F8043303F00703052B85B054D061
:10CBB000A378BBB14C4D4D492B68D86807F0F6FA05
:10CBC0002378002B33D12B684949D86807F0EEFA57
:10CBD0002B684849D86807F0E9FA2B684649D868B5
:10CBE00007F0E4FA454DC82445F001054FF47A40BA
:10CBF000A847013CFAD1424A0123C2F80435D2F8D1
:10CC00000034002BFBD04FF01021D1F8043323F077
:10CC1000070343F00503C1F804330023C2F80435C9
:10CC2000374AD2F80034002BFBD0FFF7D5FE23782B
:10CC30002A68012BD06805D1324A3349922307F084
:10CC4000B5FAC5E72378022BC2D1922300932D4A6F
:10CC50002E4B2F4907F0AAFABAE76378B3B1224DF9
:10CC60002C492B68D86807F0A1FA237823BB2B68DE
:10CC70001F49D86807F09AFA2B682749D86807F047
:10CC800095FA2B682549D86807F090FA142403A870
:10CC90000394FFF7BFFE039B039403F5E0730322A5
:10CCA00040F8232003A8FFF7B5FE039A0123934021
:10CCB000C0F8083505B030BD23782A68012BD0684C
:10CCC00005D1104A10499F2307F070FAD4E7237862
:10CCD000022BD1D19F2300930A4A0C4B0C4907F039
:10CCE00065FAC9E77C590020D0590020EB700F008D
:10CCF00089700F00F8700F0092700F00307E0F00E7
:10CD000000E00140367E0F0053700F005D700F0091
:10CD10007D700F0033710F0039710F0096700F0096
:10CD200073B52D4D2D4E00F0EFF801236B70FFF71A
:10CD30002FFF4FF47A7446F001064FF47A40B04763
:10CD4000013CFAD101F056FE4FF48051204601F02B
:10CD50005BF808B1FFF7D2FE2148C0F57E2101F053
:10CD600053F80028F6D16B78D3B11E4C1E492368C6
:10CD7000D86807F01BFA2B78C3B923681B49D86819
:10CD800007F014FA1A4B206800931A4B1A49C0682E
:10CD90001A4607F00BFA23681849D86807F006FA14
:10CDA00004F0C8FF002000F0E1FAD3E72B782268F6
:10CDB000012BD06805D1124A1249DB2307F0F6F99E
:10CDC000E0E72B78022BDDD1DB2300930C4A0E4BDE
:10CDD0000E4907F0EBF9D5E77C590020307E0F00B3
:10CDE00000B00E00D059002033710F0089700F0081
:10CDF00073710F005B710F005E710F0096700F0072
:10CE0000207E0F0053700F005D700F007D700F00CB
:10CE100037B50378022B33D1304DEB78002B5AD045
:10CE20002F4C30492368D86807F0C0F92B788BB9AC
:10CE300023682D49D86807F0B9F923682B49D868C9
:10CE400007F0B4F923682A49D86803B0BDE8304038
:10CE500007F0ACB92B782268012BD06805D1254AA0
:10CE600025492B2307F0A2F9E7E72B78022BE4D121
:10CE70002B2300931F4A214B214907F097F9DCE748
:10CE8000012B28D1154DEB782BB3154C1549236890
:10CE9000D86807F08BF92B783BB923681249D8681A
:10CEA00007F084F923681749C9E72B782268012B1A
:10CEB000D06805D10F4A1049332307F077F9F1E71D
:10CEC0002B78022BEED1332300930A4A0B4B0C49EB
:10CED00007F06CF9E6E703B030BD00BF7C590020D5
:10CEE000D059002046700F0089700F009D710F000F
:10CEF00092700F00717E0F0053700F0076710F005B
:10CF00007D700F00B6710F0030B54FF0A043114D8A
:10CF10000C22C3F840270FCD8BB004AC0FC40E4BCE
:10CF2000009395E803004FF4807301930B4B029339
:10CF30004FF4805384E803000393094A07236946AA
:10CF400004A804F051FB044608B1FFF7D7FD2046C2
:10CF50000BB030BD847E0F00F57D0020F56D002004
:10CF600011CE0E0070B50D4614460E46731B9C4242
:10CF700001DC204670BD16F8010B04F0B9FBF5E7A3
:10CF800010B50C46204604F08DFB0528FAD0012090
:10CF900010BD000038B1054B0360054B4360012311
:10CFA0000372002070470E20704700BFDBCF0E00D9
:10CFB000B5CF0E0069B10B78022B0CD1022804D03A
:10CFC000032814BF08201120704703230B70002092
:10CFD00070470E2070470820704710B50C4681B18D
:10CFE0000B78012B06D00ED9033B012B94BF0820F0
:10CFF000112010BD03F00AFA0028FAD10223237091
:10D00000F7E70E20F5E70820F3E7000070B5816927
:10D01000124B134A11F8025C0446D21A45B9006952
:10D020000C21B2FBF1F200218A4204D1012010E070
:10D030004FF0FF30F4E71E68AE420CD1461C02D020
:10D040005E68864207D19D68D4E90001D4E90223D5
:10D05000A847206070BD01310C33E5E738850F002B
:10D0600044850F001EF0040F0CBFEFF30880EFF3B0
:10D070000980FFF7CBBF00BF41DF7047014B0122A2
:10D080001A7070471C830020BFF34F8F0549064B71
:10D09000CA6802F4E0621343CB60BFF34F8F00BF56
:10D0A000FDE700BF00ED00E00400FA0538B5054DCE
:10D0B000044645F001054FF47A40A847013CFAD1F7
:10D0C00038BD00BFA07E0F0037B51E4D6B78B3B1E1
:10D0D0001D4C1E492368D86807F068F82B78D3B92F
:10D0E00023681B49D86807F061F823681949D86894
:10D0F00007F05CF823681849D86807F057F8322021
:10D10000FFF7D4FF154B164800221A7003B0BDE894
:10D11000304003F03FB92B782268012BD06805D14D
:10D12000104A1149962307F041F8DEE72B78022BCD
:10D13000DBD1962300930B4A0C4B0D4907F036F8D0
:10D14000D3E700BF7C590020D059002033710F0075
:10D1500089700F000D720F0096700F001C83002065
:10D1600089D00E00A67E0F0053700F00C6710F000D
:10D170007D700F00042873B504460BD802282AD806
:10D180007CD0414B1B68002B7BD0204602B0BDE811
:10D1900070401847831F012BF3D83C4E7378BBB106
:10D1A0003B4D3C492B68D86807F000F83378002BDA
:10D1B0004ED12B683849D86806F0F8FF2B683749FC
:10D1C000D86806F0F3FF2B683549D86806F0EEFF03
:10D1D000FFF77AFFD5E72D4E7378B3B12C4D2D496B
:10D1E0002B68D86806F0E2FF3378DBB92B682A4950
:10D1F000D86806F0DBFF2B682A49D86806F0D6FF0E
:10D200002B682749D86806F0D1FF274B19684FF4DF
:10D210007A720023C803490C09F086FC234900F008
:10D2200013FFAEE733782A68012BD06805D1204A76
:10D230002049B92306F0BAFFDDE73378022BDAD1B3
:10D24000B92300931A4A1C4B1C4906F0AFFFD2E7E2
:10D2500033782A68012BD06805D1154A1549C023B7
:10D2600006F0A4FFAAE73378022BA7D1C0230093CE
:10D270000F4A114B114906F099FF9FE702F0C8FFD2
:10D280007FE702B070BD00BF208300207C590020E2
:10D29000D059002033710F0089700F0037720F00D2
:10D2A00096700F0023720F0018830020C1D20E0069
:10D2B000CD7E0F0053700F00C6710F007D700F0000
:10D2C00037B51E4D6B78B3B11D4C1E492368D86825
:10D2D00006F06CFF2B78DBB923681B49D86806F091
:10D2E00065FF23681949D86806F060FF236818496C
:10D2F000D86806F05BFF174B0020986503F00CF828
:10D3000008B1FFF7FBFB03B0BDE83040FFF7DCBE20
:10D310002B782268012BD06805D10F4A0F49A7232B
:10D3200006F044FFDDE72B78022BDAD1A723009328
:10D33000094A0B4B0B4906F039FFD2E77C59002014
:10D34000D059002033710F0089700F0043720F0015
:10D3500096700F00F49A0020B77E0F0053700F00F4
:10D36000C6710F007D700F0000207047F0B59F4B15
:10D3700089B01860002003F023F8002840F09D8455
:10D380009B4C6378C3B19B4D9B492B68D86806F0D2
:10D390000DFF2378002B40F0F7802B689749D86861
:10D3A00006F004FF2B689649D86806F0FFFE2B684C
:10D3B0009449D86806F0FAFE0022182102A804F069
:10D3C00091FF0646002800F03F81E378CBB1894DFC
:10D3D0008D492B68D86806F0E9FE2378002B40F0D1
:10D3E000EC802B688549D86806F0E0FE2B688749F9
:10D3F0003246D86806F0DAFE2B688549D86806F010
:10D40000D5FE4FF08043D3F800646378CBB1794DFB
:10D4100079492B68D86806F0C9FE2378002B40F0C4
:10D42000E8822B687549D86806F0C0FE2B687949F8
:10D43000D868324606F0BAFE2B687249D86806F002
:10D44000B5FEB00740F107836378D3B1694D6A49EF
:10D450002B68D86806F0AAFE2378002B40F0E28201
:10D460002B686649D86806F0A1FE28686A4B6B49AC
:10D47000C068002206F09AFE2B686249D86806F060
:10D4800095FE4EF66023664E336001F05DF901288B
:10D4900000F01184022831D0002840F00E844FF0B3
:10D4A0008043D3F80024D10340F142834FF480320B
:10D4B000C3F8002400275B4D2B6A012B00F0648326
:10D4C000E378C3B14B4D50492B68D86806F06EFE27
:10D4D0002378002B40F0D6832B684849D86806F0A3
:10D4E00065FE2B685049D86806F060FE2B684849F5
:10D4F000D86806F05BFE4EF6602333604FF0804341
:10D500004FF0FF32C3F8002401F0B8FA474A202157
:10D510001820FDF717FF08B1FFF7F0FA4FF080432E
:10D52000D3F81C2502F0F902B12A02BFD3F81C255A
:10D5300002F04E02C3F81C253A4B9A6D012A06D11F
:10D540000020986502F0E8FE08B1FFF7D7FAFFF770
:10D550000BFF002840F0B18331684FF47A7200234A
:10D56000C803490C09F0E0FA314900F06DFD31487B
:10D5700001F086FF002840F0A08301F0A5FAFDF736
:10D580006FFFFFF779FDF8E723782A68012BD06851
:10D5900006D1294A294940F2DB1306F007FE01E7CC
:10D5A0002378022B7FF4FEAE40F2DB130093224A75
:10D5B000234B244906F0FAFDF4E623782A68012B70
:10D5C000D06806D11C4A1D494FF4F07306F0EEFDF9
:10D5D0000CE72378022B7FF409AF4FF4F07300932C
:10D5E000154A174B174906F0E1FDFFE6208300209E
:10D5F0007C590020D059002033710F0089700F0032
:10D6000057720F0096700F0046700F007B720F006C
:10D6100092700F0099730F0000004E40AD730F0021
:10D6200018830020F49A0020F2730F00F87E002087
:10D63000C1D20E0075D10E00DA7E0F0053700F00BC
:10D64000C6710F007D700F009DF80830FE2B6378C7
:10D6500040F06281BBB1954D95492B68D86806F0C2
:10D66000A5FD2378002B4BD12B689249D86806F092
:10D670009DFD2B689049D86806F098FD2B688F496E
:10D68000D86806F093FD6378F3B1884D88492B681C
:10D69000D86806F08BFD2378002B49D12B6885498B
:10D6A000D86806F083FD069B286801939DF8083032
:10D6B00000938349079B049AC06806F077FD2B68A6
:10D6C0007E49D86806F072FD049800F067FE0646B1
:10D6D00000285DD0E378002B3FF493AE734D794979
:10D6E0002B68D86806F062FD2378002B38D12B68B0
:10D6F0007049D86806F05AFD2B687349324678E6BF
:10D7000023782A68012BD06806D1704A70494FF4FB
:10D71000F17306F04BFDACE72378022BA9D14FF44F
:10D72000F1730093694A6B4B6B4906F03FFDA0E72C
:10D7300023782A68012BD06806D1644A644940F2F4
:10D74000E31306F033FDAEE72378022BABD140F2B2
:10D75000E31300935D4A5F4B5F4906F027FDA2E7A4
:10D7600023782A68012BD06806D1584A584940F2DC
:10D77000EB1306F01BFDBFE72378022BBCD140F270
:10D78000EB130093514A534B534906F00FFDB3E797
:10D790006378BBB1454D46492B68D86806F006FD55
:10D7A0002378002B2FD12B684249D86806F0FEFC65
:10D7B0002B684A49D86806F0F9FC2B683F49D868BD
:10D7C00006F0F4FCFC230022182102A88DF8083092
:10D7D00004F086FD002846D0E378002B3FF411AE1C
:10D7E000324D38492B68D86806F0E0FC237813BB2B
:10D7F0002B683049D86806F0D9FC2B683849D868BE
:10D8000006F0D4FCF8E523782A68012BD06806D10D
:10D810002E4A2F4940F2ED1306F0C8FCC8E72378E2
:10D82000022BC5D140F2ED130093284A294B2A4917
:10D8300006F0BCFCBCE723782A68012BD06806D12F
:10D84000224A234940F2F11306F0B0FCD5E72378D1
:10D85000022BD2D140F2F11300931C4A1D4B1E49FA
:10D8600006F0A4FCC9E76378BBB1104D10492B68E2
:10D87000D86806F09BFC2378002B35D12B680D4926
:10D88000D86806F093FC2B681649D86806F08EFC21
:10D890002B680A49D86806F089FC0A20FFF706FCC5
:10D8A00004F01CFDFFF710FCABE500BFD0590020D1
:10D8B00033710F0089700F0086730F0096700F0090
:10D8C0009F720F0046700F00DE720F00DA7E0F00AD
:10D8D00053700F00C6710F007D700F0003730F00AF
:10D8E0003C730F0063730F0023782A68012BD06804
:10D8F00006D1974A974940F2F31306F057FCC2E766
:10D900002378022BBFD140F2F3130093904A924B3D
:10D91000924906F04BFCB6E7BBB1914D91492B689B
:10D92000D86806F043FC2378002B32D12B688E494F
:10D93000D86806F03BFC2B688C49D86806F036FCAA
:10D940002B688B49D86806F031FC6378F3B1844DBD
:10D9500084492B68D86806F029FC2378002B30D145
:10D960002B688149D86806F021FC069B2868019342
:10D970009DF8083000937F49079B049AC06806F021
:10D9800015FC2B687A49D86806F010FC04F0A6FC58
:10D9900037E523782A68012BD06806D16C4A6D4997
:10D9A0004FF4FD7306F002FCC5E72378022BC2D1C9
:10D9B0004FF4FD730093664A674B684906F0F6FB27
:10D9C000B9E723782A68012BD06806D1604A6149FB
:10D9D00040F2FB1306F0EAFBC7E72378022BC4D121
:10D9E00040F2FB1300935A4A5B4B5C4906F0DEFBA6
:10D9F000BBE723782A68012BD06806D1544A5549E1
:10DA00004FF4017306F0D2FB10E52378022B7FF46C
:10DA10000DAD4FF4017300934D4A4F4B4F4906F043
:10DA2000C5FB03E523782A68012BD06806D1484A54
:10DA3000484940F2072306F0B9FB16E52378022B8C
:10DA40007FF413AD40F207230093414A424B434910
:10DA500006F0ACFB09E5484B9B6D012B637834D194
:10DA6000C3B13F4D3F492B68D86806F09FFB237830
:10DA70009BB92B683C49D86806F098FB28683F4B57
:10DA80003F49C068002206F091FB2B683849D868EE
:10DA900006F08CFB41F29413F5E423782A68012BFD
:10DAA000D06806D12A4A2B4940F20A2306F07EFBB1
:10DAB000E4E72378022BE1D140F20A230093244AC1
:10DAC000254B264906F072FBD8E7B3B1244D254912
:10DAD0002B68D86806F06AFB23788BB92B6822493B
:10DAE000D86806F063FB2B682649D86806F05EFB11
:10DAF0002B681F49D86806F059FB4FF0FF33C2E48A
:10DB000023782A68012BD06806D1114A114940F2C6
:10DB1000112306F04BFBE6E72378022BE3D140F21A
:10DB2000112300930A4A0C4B0C4906F03FFBDAE73D
:10DB3000D3F8202502F0F902A92A06D1D3F820252E
:10DB400002F05602C3F82025B4E40127B3E400BF75
:10DB5000DA7E0F0053700F00C6710F007D700F004A
:10DB6000D059002033710F0089700F0083730F00AC
:10DB700096700F009F720F00F49A00200000124070
:10DB8000C3730F00DE730F004FF440535A687F4B8E
:10DB90009A4209D002F0C6FCAA69014697B17C48B6
:10DBA00002F0BAFF90B98BE46A6B1FB995F8603246
:10DBB000012BEFD077484FF4805102F0ADFF0028E1
:10DBC000E8D17DE495F8A132012BE8D133685A1CE5
:10DBD0007FF494AC4FF08042C2F8003402F04EFC67
:10DBE00000286DD16C4F00233B706378C3B16B4E3E
:10DBF0006B493368D86806F0D9FA2378002B40F0D7
:10DC0000928033686749D86806F0D0FA336866496D
:10DC1000D86806F0CBFA33686449D86806F0C6FACB
:10DC2000634802F0B7FB3B7823B9624940F26620B3
:10DC3000FDF7BCFC01230020AB6502F06DFB08B1D1
:10DC4000FEF75CFF6378BBB1544D55492B68D8682B
:10DC500006F0ACFA2378002B7ED12B685149D868A6
:10DC600006F0A4FA2B685449D86806F09FFA2B688E
:10DC70004E49D86806F09AFA3220FFF717FA00F0FA
:10DC8000A9F81AE023782A68012BD06806D14B4AFC
:10DC90004B4940F21E2306F089FA22E42378022B36
:10DCA0007FF41FAC40F21E230093444A414B454988
:10DCB00006F07CFA15E4FFF707FA032009B0F0BD7F
:10DCC000E378002B8ED0354E3F493368D86806F094
:10DCD0006DFA23787BB933683249D86806F066FA62
:10DCE00033683A49D86806F061FA33683849D86829
:10DCF00006F05CFA76E723783268012BD06806D10B
:10DD00002E4A2F494FF4187306F050FAE8E72378AB
:10DD1000022BE5D14FF418730093284A254B29496B
:10DD200006F044FADCE723783268012BD06806D18C
:10DD3000224A23494FF4197306F038FA66E723782C
:10DD4000022B7FF463AF4FF4197300931B4A194BF6
:10DD50001C4906F02BFA59E723782A68012BD06872
:10DD600006D1164A16494FF41B7306F01FFA79E7DD
:10DD70002378022B7FF476AF4FF41B7300930F4A86
:10DD80000C4B104906F012FA6CE700BFDBE5B1510D
:10DD9000959D0020549D00201C830020D059002018
:10DDA00033710F0089700F002C740F0096700F00F4
:10DDB0007DD00E00C6710F0042740F00DA7E0F0096
:10DDC00053700F007D700F0046700F0015740F0028
:10DDD00092700F0008B5094B4FF0FF32C3F8802056
:10DDE000C3F88021C3F88420C3F8842102F014F81A
:10DDF000BDE808404FF4805000F028B800E100E092
:10DE000080F308880847000070B50546C1F30B0091
:10DE1000A8B9B5F57F2F12D80B4E3268072A10D853
:10DE2000130103F1804404F5F0340132C4F80058C2
:10DE3000C4F804180221C4F80818326070BD072025
:10DE4000FCE70420FAE700BF2483002038B504462D
:10DE50001848C0F57F21FFF7D7FF08B1FEF74EFE47
:10DE600002F060FB144B996901F6FF716FF30B012F
:10DE700001440020FFF7C8FF08B1FEF73FFEEFF3B3
:10DE800005820023D4E9005483F3148883F31088B7
:10DE900083F3118883F31388C2F308021AB1074988
:10DEA0005820FDF783FB21462846BDE83840FFF7A0
:10DEB000A7BF00BF00B00E00F49A00206F740F00DF
:10DEC000B1F1807FF7B506460C4636D31D498F2049
:10DED000FDF76CFB6FF07F431B4FA34228BF234627
:10DEE000D7F80455E41A1D44631E942B98BF96344A
:10DEF0007460347B25F07F4598BF963D032C03D991
:10DF000010497720FDF752FB04F5A8734FF4F86031
:10DF100047F823500D4B43F0010398470C4BA200E8
:10DF2000134400221A601B680193019B4FF4803355
:10DF3000A340C7F8043303B0F0BD9529CAD80149FE
:10DF40009020C5E7C6740F0000400240F07E0F002D
:10DF5000404102401FB518490B7853BB4FF0804336
:10DF6000A024D3F81824D2035CBF01229A60134B7B
:10DF70000022C3F80021D3F8000103900398C3F8EE
:10DF80004021D3F8400102900298C3F84421D3F80D
:10DF90004401019001980A4880F824431024446009
:10DFA0000220C3F8082501229A601A60C3F804030E
:10DFB0000A7004B010BD00BF28830020004002405A
:10DFC00000E100E073B51B4BD3F8042152B11A49AC
:10DFD0000A6801320A600022C3F80421D3F8043130
:10DFE0000093009B154C164D164E2B6883B10023F1
:10DFF0002B602B68227B0193019B4FF4803393406D
:10E000000C4AC2F80833616849B12046FFF758FF4F
:10E010000435B54204F11004E7D102B070BDA16827
:10E0200011B12046FFF74CFF2368002BF0D0984732
:10E03000EEE700BF004002402C83002088590020FA
:10E04000404102404841024070B50B4B1D682A7B9D
:10E050004FF480339340094A0E46C2F80833044611
:10E0600040B1FFF777FF2E6021462846BDE870409B
:10E07000FFF726BF70BD00BF84590020004002405A
:10E0800070B5074B1D680E46A8600446FFF762FF97
:10E090002E6021462846BDE87040FFF711BF00BF43
:10E0A00080590020014B01221A70704730830020F4
:10E0B0002DE9F04F814287B005460F46164635D10F
:10E0C000814DEB7823B90024204607B0BDE8F08FDE
:10E0D0007E4C7F492368D86806F068F82B787BB9B6
:10E0E00023687C49D86806F061F823687A49D868C3
:10E0F00006F05CF823687949D86806F057F8E2E73B
:10E100002B782268012BD06805D1754A75495223B6
:10E1100006F04CF8E9E72B78022BE6D15223009366
:10E120006F4A714B714906F041F8DEE703D26E4940
:10E130005620FDF73BFA36B1C5F30B031BB16A4914
:10E140005A20FDF733FA7B1BB3F5805F4FEA133497
:10E1500003D265495E20FDF729FA00F08FFC082CF8
:10E1600028BF082406F6FF7A2303DFF85C81DFF876
:10E170005CB103944FEA1A3A0593002EA3D0039B97
:10E18000534536BF039BCDF810A00493049938BFC4
:10E19000DDF814904FF00002284628BFB14601F088
:10E1A00005FE044600288FD198F80130FBB1DBF85A
:10E1B00000304F49D86805F0F9FF98F80030002B7F
:10E1C00050D1DBF800304349D86805F0EFFFDBF8A9
:10E1D0000000CDF800904749C0682B463A4605F04C
:10E1E000E5FFDBF800304449D86805F0DFFF09F1AE
:10E1F0000302002322F003023946284601F06AFD9B
:10E20000044600287FF460AF049B3C4AAAEB030A53
:10E21000136B4B44136302F0C3F8A6EB09064D449D
:10E220004F4404460028A8D098F80330002B3FF450
:10E230004BAF264D26492B68D86805F0B7FF98F8F4
:10E24000003043BB2B682349D86805F0AFFF2B682B
:10E250002B49D86805F0AAFF2B682049D86805F03B
:10E26000A5FF31E798F80030DBF80020012BD068DB
:10E2700005D11B4A1B497E2305F098FFA7E798F8B4
:10E280000030022BA3D17E230093154A164B174969
:10E2900005F08CFF9BE798F800302A68012BD068C6
:10E2A00005D10F4A0F49942305F080FFCFE798F876
:10E2B0000030022BCBD194230093094A0A4B0B491F
:10E2C00005F074FFC3E700BF7C590020D05900203F
:10E2D00046700F0089700F006D750F0092700F006F
:10E2E000F67E0F0053700F0018750F007D700F0041
:10E2F00033710F007C750F0096700F00F49A0020A8
:10E300009D750F0010B502F02BF9104A916C01F5C4
:10E3100000535C680E4B9C4212D1D2E90C329342FE
:10E3200011D0D21A02F6FF72194418446FF30B028F
:10E33000FFF7BEFE034620B9BDE8104002F030B83A
:10E340000323184610BD0023FBE700BFF49A00200A
:10E35000DBE5B15138B50F4BDA6A5D6A9C6CAC2ACB
:10E3600010D15B6B1C44ED1A0B482A46214605F080
:10E37000A2FF68B100F0A8FB29462046BDE838405E
:10E3800001F02CBD002CEFD102F0DCF80446EBE7E5
:10E3900038BD00BFF49A002000B00E002DE9F04F08
:10E3A000A04CC5B0064602F0BDF863788046C3B104
:10E3B0009D4D9E492B68D86805F0F8FE2378002B08
:10E3C00040F002812B689A49D86805F0EFFE2B686F
:10E3D0009849D86805F0EAFE2B689749D86805F097
:10E3E000E5FE6378D3B1904D90492B68D86805F06D
:10E3F000DDFE2378002B40F0FE802B688C49D86826
:10E4000005F0D4FE28688D49C0684346324605F0C1
:10E41000CDFE2B688849D86805F0C8FE36B1C8F330
:10E420000B031BB18649AC20FDF7C0F8854BDFF824
:10E4300040A206F6FF752D0B43F0010B002E00F0F5
:10E44000768129460022404601F0B0FC05460028AE
:10E4500040F0B680B6F5807F334628BF4FF4807316
:10E46000033323F0030303936378D3B16E4F6F49F3
:10E470003B68D86805F09AFE2378002B40F0FA80BC
:10E480003B686B49D86805F091FE3B686E49D868D7
:10E49000DAF8002005F08AFE3B686749D86805F085
:10E4A00085FEDAF800204FF4807104A803F01AFF0B
:10E4B0008146D8B1E378CBB15B4F64493B68D868FB
:10E4C00005F074FE2378002B40F0EB803B68584940
:10E4D000D86805F06BFE3B685D49D8684A4605F090
:10E4E00065FE3B685B49D86805F060FE04AF4FF0FD
:10E4F000400957F8041B584805F088FE09F1FF3918
:10E500004FF47A40D84719F0FF09F2D1039A4B46ED
:10E5100004A908EB050001F0DDFB074600B3E37832
:10E52000F3B1DFF804914949D9F80030D86805F013
:10E530003DFE2378002B40F0CB80D9F800303C49D9
:10E54000D86805F033FED9F800304449D8683A4617
:10E5500005F02CFED9F800303E49D86805F026FEBB
:10E56000DAF8003005F5807503F58073AE42CAF81D
:10E5700000303FF679AF002F40F0DB80384601F0E5
:10E580000FFF0546002800F0D280E378C3B1264E85
:10E590002E493368D86805F009FE2378002B40F037
:10E5A000AF8033682249D86805F000FE33682C49F3
:10E5B000D86805F0FBFD33682649D86805F0F6FDFC
:10E5C000284645B0BDE8F08F23782A68012BD06833
:10E5D00005D1244A2449A72305F0E8FDF7E623786E
:10E5E000022B7FF4F4AEA72300931E4A144B1F495D
:10E5F00005F0DCFDEBE623782A68012BD06805D115
:10E60000184A1949A82305F0D1FDFBE62378022B0F
:10E610007FF4F8AEA8230093124A094B134905F082
:10E62000C5FDEFE67C590020D059002033710F0062
:10E6300089700F00D6750F0096700F00F1750F00EE
:10E6400018750F00107F0F0021760F0046700F0025
:10E6500048760F0092700F005A760F0062760F0016
:10E660009D750F00167F0F0053700F007D700F0017
:10E67000A859002023783A68012BD06805D12E4A8A
:10E680002E49CC2305F092FDFFE62378022B7FF480
:10E69000FCAECC230093284A294B2A4905F086FD7D
:10E6A000F3E623783A68012BD06805D1224A234942
:10E6B000CF2305F07BFD0EE72378022B7FF40BAF11
:10E6C000CF2300931C4A1E4B1E4905F06FFD02E745
:10E6D0002378D9F80020012BD06805D1164A1749B4
:10E6E000DF2305F063FD2EE72378022B7FF42BAFA9
:10E6F000DF230093104A124B124905F057FD22E721
:10E7000023783268012BD06805D10B4A0B49F323DB
:10E7100005F04CFD4AE72378022B7FF447AFF32343
:10E720000093054A064B074905F040FD3EE70025EA
:10E7300046E73D4644E700BF167F0F0053700F00C9
:10E7400018750F007D700F002DE9F347964DEB6AA9
:10E75000AA2B00F0228108D8012B10D0A52B00F0A5
:10E760001881002002B0BDE8F087AC2BF9D1FFF78B
:10E77000C9FD002840F00F81FFF7ECFD0BE18B4C49
:10E78000D5F82480D5F848A001F0CCFE2E6B637834
:10E7900000EB0609BBB1864F86493B68D86805F097
:10E7A00005FD2378002B37D13B688349D86805F0F5
:10E7B000FDFC3B688149D86805F0F8FC3B6880495E
:10E7C000D86805F0F3FC2B6B0AEB0301894514BFF5
:10E7D000A8EB060200224846FFF76AFC064600281E
:10E7E0004AD0E378002B70D0714E76493368D868F0
:10E7F00005F0DCFC23783BBB33686F49D86805F033
:10E80000D5FC33687049D86805F0D0FC33686F498F
:10E81000D86805F0CBFC58E023783A68012BD06823
:10E8200006D16B4A6B494FF4877305F0BFFCC0E714
:10E830002378022BBDD14FF487730093644A664B53
:10E84000664905F0B3FCB4E723783268012BD06841
:10E8500006D15F4A5F494FF48D7305F0A7FCD0E7FE
:10E860002378022BCDD14FF48D730093584A5A4B25
:10E870005A4905F09BFCC4E701F054FE324641467C
:10E88000FCF778FEAB6A9842074652D16378BBB179
:10E89000474E48493368D86805F088FC2378002B38
:10E8A0002FD133684449D86805F080FC33684C495F
:10E8B000D86805F07BFC33684149D86805F076FCE0
:10E8C0000123C5E90773C5F8188000264548464F5F
:10E8D00001F01CFE002345483B7001F061FD3B78D0
:10E8E000044623B93C4940F20D20FCF75FFE002CA2
:10E8F00056D1002E56D02B6A012B0CBF02200120CE
:10E9000030E723783268012BD06806D1304A31498C
:10E9100040F2231305F04AFCC8E72378022BC5D147
:10E9200040F2231300932A4A2B4B2C4905F03EFC5E
:10E93000BCE7E378002BC8D01D4E22493368D86865
:10E9400005F034FC237863B933681B49D86805F0B7
:10E950002DFC3068AA6A2649C0683B4605F026FCB3
:10E9600054E723783268012BD06806D1184A194938
:10E970004FF4957305F01AFCEBE72378022BE8D1EE
:10E980004FF495730093124A134B144905F00EFC93
:10E99000DFE7FFF7B7FC012698E7FFF7DBFC94E71A
:10E9A0000320DFE60120DDE6F49A00207C590020F8
:10E9B000D059002033710F0089700F0076760F0058
:10E9C00096700F0046700F0091760F0092700F0046
:10E9D000017F0F0053700F0018750F007D700F003E
:10E9E000AA760F00189B002030830020A5E00E00BF
:10E9F000BF760F0010B50024D4F8F83F013304D1DE
:10EA0000084940F6F870FDF773FED4F8FC3F013377
:10EA100007D1BDE810404FF47E2140F6FC70FDF7B1
:10EA200067BE10BD00B00E000A4AD2F800347BB1B8
:10EA300009480023D2F80815D940C90748BF03F593
:10EA4000C07103F1010348BF42F82100072BF1D147
:10EA5000704700BF000001403546526EFFF7E4BF2B
:10EA6000054B002282B0C3F80021D3F80031019396
:10EA7000019B02B0704700BF0000014038B50E4C4A
:10EA80002378BBB90D4BD3F800248AB1D3F80455D1
:10EA9000FFF7CAFF40F61650A842B8BF28460849FB
:10EAA000A0F54860FFF7ECFA064B4FF480321A608D
:10EAB0000123237038BD00BF3183002000000140D6
:10EAC0005DEA0E0000E100E0034BD3F800340BB127
:10EAD000FFF7AABF704700BF000001400023C0E954
:10EAE0000232C0E900118B881A440261B1F9063084
:10EAF0001A4442610888003818BF0120704710B5D9
:10EB000042681188034641B102F110014160118A47
:10EB100029B9C2680168FFF7E1FF002010BD9078B5
:10EB2000118900F03004302C1BD1947C04F03004A7
:10EB3000302C1DD190881969091A1961002190782B
:10EB400010F0300F02BF986801309860908A084436
:10EB5000196901441961B2F9162011445961012063
:10EB6000DCE700F0F004202C02D150894143E6E7B5
:10EB700000F0C000802808BF0421E0E770B54668B7
:10EB800004460D4663681A88AA4204D19B7803F0B4
:10EB90000F03082B07D12046FFF7B1FF6368B3428C
:10EBA000F0D1002070BD0120FCE743681A444260A8
:10EBB00011B101399A4201D10120704713F8010BBC
:10EBC00001F8010FF6E710B5836804460BB9002081
:10EBD00010BD0368012298470028F8D0A368013BC4
:10EBE000A360F5E72DE9F3410F460DF107018046DB
:10EBF000FFF7E9FF054620B90025284602B0BDE829
:10EC0000F0819DF907309DF80740002B13DA04F0DE
:10EC10007F0407260DF107014046FFF7D4FF0028C7
:10EC2000EAD09DF8072002F07F03B3401C4313068F
:10EC300006F1070601D43C60DFE7232EEAD1DBE7CB
:10EC400070B54268927802F00F01082986B0034639
:10EC50001FD103691C6800260CB906B070BD23687B
:10EC600026739D68626829466846FFF737FF636828
:10EC7000049304F10C030593AB7803F0C003802BDD
:10EC800008BF231D684608BF0493FFF7D9FFA46897
:10EC9000E2E73F2A28D802F03001102911D1426959
:10ECA000002111705A6818699378D46803F00F0333
:10ECB000072B0CD10146204606B0BDE8704000F09D
:10ECC0001FB89106EED5436900221A80C5E7128964
:10ECD000214624B106B0BDE8704005F0C9BB06B0BE
:10ECE000BDE8704005F0F7BA02F0C0018029B4D148
:10ECF000006900210160920644BF5B691980ACE79E
:10ED00007FB50A4601466846FFF7E8FE30B168461F
:10ED1000FFF796FF6846FFF7F2FEF7E707B05DF8EA
:10ED200004FB000030B5044685B01546A9B9026859
:10ED3000114B9A4211D0102D06D82A46694620461A
:10ED4000FFF7F0FF05B030BD102269462046FFF7FF
:10ED5000E9FF0028F6D0103DEDE7A368AB4201D2F1
:10ED60000020EFE723682A46204698470028F7D07E
:10ED7000A3685B1BA360E5E7ABEB0E002DE9F34155
:10ED80000F4601A980461646FFF72CFFA0B1019C53
:10ED9000621C4FF0000504D2BB7803F0C003802B47
:10EDA00001D1284608E03B899342FAD322463146F6
:10EDB0004046FFF7B7FF355502B0BDE8F08173B5A7
:10EDC0000D4601A906461446FFF70CFFB0B1019AA3
:10EDD000B2F5803F12D2AB7803F0C003802B02F172
:10EDE00002010BD02B898B4208D32146304621F8F3
:10EDF000022B02B0BDE87040FFF794BF002002B0C4
:10EE000070BD000010B5034C82600022C0E90041D3
:10EE1000C26010BDABEB0E002DE9F34100250646A4
:10EE20000F46A8462C460DF107013046FFF7CBFEF2
:10EE3000C0B19DF807C0A4F120030CF07F02C4F11B
:10EE4000200102FA03F322FA01F10B43A2401CF065
:10EE5000800F45EA020543EA080804F1070404D1DB
:10EE6000C7E9005802B0BDE8F081462CDBD1002094
:10EE7000F8E737B50D4669461446FFF7CDFFA8B150
:10EE80002B89013B072B20D8DFE803F01A161F124D
:10EE90001F1F1F04DDE90032C4E90032DDE9000173
:10EEA000914208BF98420CBF0120002003B030BD42
:10EEB000009B23600022F1E7009B23809BB2F9E7CF
:10EEC000009B237003F0FF03F4E70020EEE737B563
:10EED0000D4669461446FFF79FFF30B12B89082B7A
:10EEE000DDE9001203D1C4E9001203B030BD022BEA
:10EEF0004FEAE1700FD0042B03D0012B0FD000207C
:10EF0000F3E721600B460246824208BF8B420CBFEA
:10EF100001200020E9E70BB22380DA17F4E74BB2B7
:10EF20002370FAE7F7B51F4600233B700D460B70C0
:10EF3000136001A904461646FFF754FE38B9A368CA
:10EF400013B1002003B0F0BD01233B70F9E7019C31
:10EF5000002CF9D0E30804F0070433602C70F1E7CB
:10EF600013B50446052921D8DFE801F0030F172067
:10EF7000201E012201A92046FFF7D4FE18B19DF9F9
:10EF80000430002BF5DB02B010BD08220021204622
:10EF900002B0BDE81040FFF7C5BE01A9FFF722FE91
:10EFA0000028F0D0019AF1E70422EFE70020EAE719
:10EFB00073B50D4601A90446FFF714FE064618B9BD
:10EFC0000026304602B070BD94E80F0085E80F00BF
:10EFD00001998A42F4D3A960A3685B1AA360F0E7A1
:10EFE0002DE9F043D2F804C09CF8023013F0C00EB3
:10EFF00089B006460C46154604D0BEF1400F6BD0D2
:10F00000002445E003F00F02604903F03003202B99
:10F0100051F8227023D007D8DBB92A6961463B46F4
:10F0200009B0BDE8F0431847302BE9D16B69BCF853
:10F0300000101980072A0AD16B6828691A8971465D
:10F0400005F049F96B682969D868FFF759FE2A6904
:10F050003FE06B6901221A702A696968DFE7022CB8
:10F06000D5F8148027D1042A25D804A9FFF7A0FFDA
:10F0700004460028C4D0069B2BB16968B8F800305C
:10F080004A899A4208D8059B7360069B002BB7D12A
:10F09000204609B0BDE8F08308892A6903FB0022F5
:10F0A00004A8B84728B1B8F800300133A8F80030F8
:10F0B000E1E70446E7E7B8F80030BCF80A209A42D6
:10F0C0009ED92A69BCF80810581CA8F8000003FB58
:10F0D000012269683046A2E7D2F81080474657F807
:10F0E000043B23B909B0BDE8F043FFF739BF02295B
:10F0F00014D104A9FFF75CFF002881D0D8F80030B4
:10F1000069683A4604A89847044600283FF478AF57
:10F11000069B002BF2D1059B7360B9E7012925D02E
:10F1200005292BD000297FF46BAF0DF104090134C0
:10F130000B2C3FF465AF012249463046FFF7F2FD44
:10F1400000283FF45DAF19F9013B002BEFDB104BBA
:10F15000049301ABCDE9053400230793D8F80030C0
:10F1600069683A4604A89847044691E7082201A92D
:10F17000FFF7D8FD08240028E9D141E704220DEB70
:10F180000201FFF7CFFD0424F5E700BF2C7F0F003D
:10F19000ABEB0E002DE9F04790B00446002604A822
:10F1A000CDE90266FFF79AFCA3683BBBDDE90534B5
:10F1B00004A89D78FFF7A3FC0028F7D115F0300FC5
:10F1C00003D1059B1B8803B10134002C00F0B480EF
:10F1D000630902A90022934240F0A78010AA02EB23
:10F1E000830304F01F0453F8383CC4F120044FF0AB
:10F1F000FF30E040C31A584258410DE00DF10303BF
:10F2000001AA0DF102012046FFF78CFE38B99DF8E6
:10F210000330002BCAD1002010B0BDE8F087019F59
:10F2200004A83946FFF7AAFC002857D1B7424CD3AF
:10F23000059D059A937803F00F03082B7ED004A850
:10F24000FFF75DFC059B9D42F3D14FF0FF36B742BF
:10F250009DF8029039D3089BD4F808801D68A368F4
:10F2600085B39845A0D12B68D3F800A0BAF1000F60
:10F2700008D04B463A4629462046D0470028CAD0F7
:10F28000AD68ECE7D3F808A0BAF800309F42F7D198
:10F290006A6851460AA8FFF721FC6B680E9305F1D6
:10F2A0000C030F939AF8023003F0C003802B04BFC5
:10F2B0002B1D0E9301232B730AAA49462046FFF704
:10F2C0008FFEDBE798457FF46FAF9DF80210204674
:10F2D000FFF746FE00287FF467AF9CE7059B9B780D
:10F2E00013F0300F0FD1069A3F2A0CD8510910ABFA
:10F2F00003EB810102F01F020123934051F8382CE7
:10F30000134341F8383CD4F80C809DF80250B8F112
:10F31000000F04D004AB2A4639462046C04704AA51
:10F3200029462046FFF75CFED4E751F8040B013074
:10F330007FF471AF01324EE701206DE7168886E752
:10F3400070B50C460646154611462046FFF7D8FC18
:10F350002A4621463046BDE87040FFF71BBFF0B596
:10F3600085B0CF680C46694605461646FFF720FE75
:10F3700068B1E06858B1A37803F03003202B32461F
:10F380003946684605D1FFF7DBFF019B6B6005B08E
:10F39000F0BDFFF7FFFEF8E713B50C466946FFF72F
:10F3A0003BFD60B1DDE900134A0842EAC372C907B8
:10F3B0004FEA530344BFD243DB43C4E9002302B006
:10F3C00010BD37B50D4669461446FFF7E5FFA8B1F5
:10F3D0002B89013B072B1FD8DFE803F01A161E12FA
:10F3E0001E1E1E04DDE90032C4E90032DDE9000121
:10F3F000914208BF98420CBF0120002003B030BDED
:10F40000009B2360DA17F1E7BDF900302380F9E7AC
:10F410009DF900302370F5E70020EFE713B50422D3
:10F420000C460DEB0201FFF77DFC08B1019B236048
:10F4300002B010BD1146FFF7F1BF13B508220C460C
:10F440006946FFF76FFC18B1DDE90023C4E900232A
:10F4500002B010BD1146FFF7F0BF0000831F012B63
:10F4600010B5044602D8002001F038F8034B1B68A1
:10F470001BB12046BDE81040184710BD3483002062
:10F4800008B5074B18600020FFF7E8FF054801F0BA
:10F490000DF820B9BDE80840024800F05DBE08BD87
:10F4A000348300205DF40E006CDF70476DDF704721
:10F4B00072DF704773DF704774DF704775DF704726
:10F4C00076DF70477ADF70477CDF70477DDF7047FB
:10F4D0007FDF704786DF70478FDF704790DF7047B0
:10F4E000A8DF7047AADF7047ADDF7047AEDF704717
:10F4F000B0DF7047B1DF7047B5DF704762DF70473C
:10F5000066DF704713DF704701460148FCF79AB980
:10F5100044850F0070B518228CB000210DEB02005D
:10F5200004F0D9FE2823089316231F4CADF80630AB
:10F530000023CDF80E30CDF81230ADF8163002238E
:10F54000092606222370237159230125A2706371B5
:10F550000322FE230DF10601A0198DF818508DF835
:10F560002D500294ADF80C606570E270A371FFF746
:10F57000ADFFB8B9BDF8063026725A19E271BDF870
:10F580000C200A4C134402A906AA2046ADF80C3000
:10F59000FFF78EFF30B92078FFF78EFF20782946DD
:10F5A000FFF788FF0CB070BD38830020AC590020F5
:10F5B00038B515490B68024613F0010022D01348F4
:10F5C00082421ED0124A10884FF6FF72904213D02A
:10F5D00043F004030B601321FFF772FF90B90D4D48
:10F5E000C82445F001054FF47A40A847013CFAD100
:10F5F000BDE83840FCF72ABF074B1878FFF75CFFDF
:10F60000F6E7002038BD00BFC493002030850F000E
:10F61000AE59002010810F00AC590020F0B50388CE
:10F62000232B8BB0044635D80F2B04D8012B00F0C8
:10F63000F7800BB0F0BD103B132BFAD801A252F8A3
:10F6400023F000BFC5F60E00E3F60E0033F60E0001
:10F65000C5F70E0007F90E0033F60E0033F60E0064
:10F6600033F60E0033F60E0033F60E0015F90E00D9
:10F6700033F60E0033F60E0033F60E0033F60E00AE
:10F68000EFF70E0033F60E00FDF70E0033F60E0016
:10F69000ABF70E00503B9AB2062ACAD8062BC8D840
:10F6A00001A252F823F000BF0FF70E002DF80E0054
:10F6B00015F90E0033F60E0033F60E0067F70E0054
:10F6C0000DF80E00974D83882B80974B1B680BB16C
:10F6D00001209847954928880BB0BDE8F040FFF716
:10F6E000EDBE904B4FF6FF721A80914B1B685A0784
:10F6F00004D4FFF70FFF08B1FDF700FA8A4B1B682F
:10F70000002B96D002200BB0BDE8F0401847894E80
:10F71000E288B3889A428CD18748FCF765F80546A1
:10F72000002886D0228A04F1120104F0A1FE1822DA
:10F73000002104A804F0CFFD08238DF810307F4B82
:10F7400006937F4B0596CDE9073504A8238AADF8CB
:10F75000243000F0F7FC00283FF46BAF76482946D0
:10F76000FCF770F865E7E188F6291CD8CB1E9B07EB
:10F770000DD0CB1F9BB2013B5A4202F0030203F0B3
:10F78000030301F1FF3158BF5342C91A89B2654BD7
:10F790001888FFF7B1FE00283FF44BAF0BB0BDE86F
:10F7A000F040FDF7ABB9F721F1E70022808804A90A
:10F7B000CDE90422FFF792FE00283FF43AAFFDF7AF
:10F7C0009DF936E7574C02230493208802AB04AA24
:10F7D00042F605210593FFF787FE08B1FDF78EF984
:10F7E000002320881A468521FFF772FEE4E74D4B7F
:10F7F00000F108011888FFF761FECCE7002304A997
:10F800008088ADF81030FFF767FED5E7A379002BAD
:10F810007FF40FAF434B13211888FFF751FEBAE76F
:10F82000404B00211888FFF76BFEB4E7A379002B4B
:10F830003FF4FFAE022B7FF4FCAE3E4D2189AA8936
:10F8400091427FF4F6AEA27B012A7FF4F2AE4FF430
:10F8500080320592228A334EADF81820628AADF8C4
:10F860001A2004F11402079201AF298A3088049308
:10F8700002AA02930397FFF737FE60B9384601F0FA
:10F8800043FB40B940F2FD133088ADF8143004A9B1
:10F89000FFF72EFECDE6002304A93088ADF8143022
:10F8A000FFF726FE014600287FF4C3AE182204A805
:10F8B00004F011FD237D214A8DF81030022B0595AF
:10F8C000069219D0062B05D0012B06D004A800F013
:10F8D00039FCAEE6637D0893F8E71A4B1A881A4B99
:10F8E0001A80637DD4F816200893012B0992EDD17C
:10F8F000164800F0F3FDE9E7124AB4F8153013801A
:10F90000114A1380E2E700231A4619468088FFF760
:10F91000E1FD40E70023A0881A461946FFF7EAFDFB
:10F9200039E700BFAE590020A893002016810F00D0
:10F93000C4930020B093002044850F0091F90E007D
:10F9400009F50E00AE930020AC93002030850F0027
:10F950007FB50023CDF80B308DF80F300A4BADF892
:10F9600006109B89ADF8083001238DF80A300DF19F
:10F970000603CDE90430054B02A91888FFF7B6FD50
:10F9800007B05DF804FB00BFB0930020AE59002023
:10F9900030B50D4687B0044620B9404940F2871083
:10F9A000FBF704FE25B93D494FF4C470FBF7FEFD9B
:10F9B0001122002101A804F08EFC2378082B0BD122
:10F9C000374A384913880988013B9BB21380D9B163
:10F9D000D3B9032311802370627823788DF8053022
:10F9E0006021012A8DF804108DF806200ED00B2A14
:10F9F00012D100F0E9F98DF80700002000F0DEF9DF
:10FA0000042101A8FFF7A4FF07B030BD062B05D0E5
:10FA1000082B29D0032B27D00321F2E7E1688DF8CA
:10FA20000710D4E90123080A8DF80800080C090E14
:10FA30008DF80A10110A8DF80B208DF80C10110C9E
:10FA4000120E8DF80E201A0A8DF80F308DF8102046
:10FA50001A0C1B0E8DF80D108DF809008DF8112071
:10FA60008DF812300F21CCE7D4E90123110A8DF86B
:10FA700007208DF80810110C120E8DF80A201A0AB2
:10FA80008DF80B308DF80C201A0C1B0E8DF8091018
:10FA90008DF80D208DF80E300B21B2E707770F009F
:10FAA000AC930020AE9300202DE9F041054694B0C0
:10FAB00020B93E4940F24F40FBF778FD3C4B4FF6F2
:10FAC000FF721A8001204FF659632A4602A98DF869
:10FAD0000A00ADF80830FFF703FD0446002861D1A5
:10FAE000344B04AA03F110071646186859681446E7
:10FAF00003C40833BB422246F7D1A91C3046FFF7A6
:10FB0000FDFC044600284DD101461C220DA804F03E
:10FB1000E2FB9DF834300C9443F004038DF834304C
:10FB20000223ADF80C30AB788DF80E3003238DF83E
:10FB30000630F423CDE90A44ADF82C302B464FF4BF
:10FB4000885833F8040BADF8048003AF01AE08AA5F
:10FB50000DA908970996FFF7C5FC044610BB01469E
:10FB60001C220DA804F0B7FB18238DF834300123B4
:10FB7000ADF80C30AB788DF80E3013238DF80630CD
:10FB80001723CDE90A44ADF82C302B4608AA33F8E8
:10FB90000C0B0C940DA9CDE90876ADF80480FFF7A5
:10FBA000A1FC0446204614B0BDE8F08107770F00A1
:10FBB000AE5900201E810F0030B5334C236813F07E
:10FBC000010585B05DD1314B18603148FBF7CEFDA2
:10FBD000029500F014F900284CD12E48FFF792FC52
:10FBE000002847D1FCF7F4FB002843D102A8FCF71A
:10FBF000C1FC00283ED102A90120FCF7C5FC002869
:10FC000038D102A8FCF728FD002833D100F026FCEB
:10FC100030B1214800F016FC236843F00203236052
:10FC2000112302A88DF80430FFF740FC10BB9DF8AB
:10FC3000093002A801338DF80930FFF735FCC8B947
:10FC400023689B0718D514498869043182B201A83A
:10FC5000FFF73AFC70B91148FFF734FC50B910486F
:10FC6000FFF722FF30B9FFF755FC18B9236843F0BE
:10FC70000103236005B030BD0A4804F007FC0949C0
:10FC8000E4E70020F6E700BFC4930020A89300201B
:10FC900044850F0000B00E00C893002016810F00AD
:10FCA000B093002053770F0043690BB1C068184729
:10FCB000704700000449054B0022904218BF1946C6
:10FCC0000348FBF7E7BD00BF247D0F00507D0F0008
:10FCD000945B00202DE9F7439946284B05460E46D4
:10FCE0001746052443F001084FF47A40C047013C11
:10FCF000FAD1DFF8B48098F80130E3B1204C214903
:10FD00002368D86804F052FA98F80030F3B92368F1
:10FD10001D49D86804F04AFA002320681B49CDE940
:10FD200000732A463346C06804F040FA2368184935
:10FD3000D86804F03BFACDF800903B46324629469D
:10FD40001448FBF7BFFD03B0BDE8F08398F800301E
:10FD50002268012BD06805D10F4A10497F2304F097
:10FD600025FAD9E798F80030022BD5D17F230093EC
:10FD7000094A0B4B0B4904F019FACDE730810F000B
:10FD8000D059002033710F0089700F00A5770F0044
:10FD900096700F00945B002036810F0053700F00A7
:10FDA0005B770F007D700F007C59002013460A46D8
:10FDB00001460148FBF7D6BD945B0020014B18704B
:10FDC0000B207047E4930020024B002218781A7031
:10FDD000704700BFE493002018DF704730B585B04E
:10FDE000054610220C466846002104F074FAA40867
:10FDF000684601950294FFF7EFFF05B030BD1FB5CF
:10FE00000023CDE901330393684602230093FFF7F3
:10FE1000E3FF05B05DF804FB4FF000534FF4805250
:10FE20001A60002070470000014B06201B6818472D
:10FE3000E89300200A2803D90B38C0B2FFF7BEBFF1
:10FE40007047000010B5044686B00020FBF7C6FDE1
:10FE5000014638B1174A1821204606B0BDE81040C7
:10FE6000FBF794BA1822684604F035FA0423124AC4
:10FE70008DF80030114B116D1B68994212D1104B57
:10FE8000186800F0CFFF8DF80100FFF7D3FFD4E929
:10FE900001138DF80100684698470A4800F080FA7F
:10FEA00006B010BD01238DF801306846D4E9011376
:10FEB0009847F5E745FE0E00F49A0020EC930020E9
:10FEC000F093002029FE0E00F0B5836887B0044649
:10FED00023B996494FF43470FBF768FB16220021D2
:10FEE0000DF1020004F0F7F923788DF800300122BB
:10FEF0000C2B8DF8012007D89A4012F4AD7F16D153
:10FF00000C2B03D0022B05D0022365E0884B072081
:10FF10001B689847D4E90113684698479DF801305B
:10FF2000012B00F0F380824B05201B68EDE0062BCF
:10FF3000804A01D0012B01D121691170117801296A
:10FF400004D002295AD00023137092E0013B072B02
:10FF50004ED8DFE803F0044D47314D444D10744B4B
:10FF600003201B689847606900F00CFDFFF762FFF3
:10FF70008DF80100CEE7236923B96C494FF48A70EC
:10FF8000FBF714FBA38A23B9684940F21510FBF76D
:10FF90000DFBA18A206900F00DFDFFF74BFF664BBA
:10FFA0008DF80100DA6B1B6C0293E3680192002B61
:10FFB000B0D020699847ADE76049614800F048FD3E
:10FFC000FFF738FF01288DF80100A3D1002000F0D1
:10FFD000E7F900289ED00A238DF801309AE74FF404
:10FFE00000730393544BDA6B1B6C0192029391E7FD
:10FFF0004E4940F27910FBF7D9FA8BE7013B072B0A
:02000002F0000C
:1000000000F28F80DFE803F0048D6A6F8D848D37F6
:1000100000F0F0FC08B90823DEE762690AB903239F
:10002000DAE7C2F30B0333B1434B44495B6D096814
:1000300013448B42F3D1B2F5805F01D90423CBE79F
:100040003D4B3E49586D096815188D42E3D85A64F6
:10005000DA6C9A6418651863394B61691B6801F69C
:10006000FF710022090B1844FFF7A0FE00283FF49F
:1000700051AF0523B0E700F0BDFC0028CBD02E4DDA
:10008000A18AD5E914329B1A6A6C0B449342C6D8F4
:100090002B4B2F6B1B68206905F148021F44FBF7AF
:1000A00069FAE368064623B9204940F2F110FBF7EC
:1000B0007DFAE368A28A21693846FFF70BFE08B192
:1000C000E36876E7A28A2B6B029613442B63A38A1C
:1000D0002A6DAE6413442B6501931BE7164B9A6C93
:1000E00002921B6DF8E7144BD3E91402596C821A83
:1000F0008A4290D19A6C5865002120465964DA648E
:10010000FFF7A0FE0A4B1B680420984707B0F0BD1C
:10011000094B9A6C1B6D01934FF480530292039329
:10012000F8E602494FF4267065E700BFE8770F0054
:10013000E8930020B0590020F49A0020EC930020AE
:10014000F093002083681BB1024A1821FBF71EB907
:1001500007207047C9FE0E0038B50546C0B1012022
:10016000FFF7A8FD044648B900F0FEFB00F042FC92
:1001700030B9084B00201D60FFF720FE204638BD37
:100180000549064800F064FC0128F2D00324F5E795
:100190000724F3E7E8930020EC930020F09300207D
:1001A00010B503680133044609D0002258210430F9
:1001B000FBF7E0F923681B1A5842584110BD002094
:1001C000FCE7F8B514464FF4607205460F461E462C
:1001D00004F071F818B904B1A047002006E000222D
:1001E00001212846FFF7E2FD08B10320F8BD4FF4D6
:1001F00060723946304604F03BF923464FF4607292
:1002000031462846FFF766FD0028E6D0EDE70000FE
:100210002DE9F0413648374D374EFFF7C1FFD5F88D
:10022000008007464046FFF7BBFF0446002853D036
:10023000D8F80440012C0AD00022C32108F5187018
:10024000FBF798F9D8F85C42231A5C425C41002F16
:100250003CD0274928484FF4607204F009F9C4B132
:10026000296826481022043104F002F9296824483C
:100270001822114404F0FCF8296822480422343181
:1002800004F0F6F829682048C82201F5177104F037
:10029000EFF87468012C29D11C49402201F5E47063
:1002A00004F0E6F81A491C2201F5E47004F0E0F8C5
:1002B000184986F8A1420023042201F2862086F81C
:1002C000603286F8E23204F0D3F80DE034B12968E8
:1002D00009484FF46072DAE7002FBAD106484FF4AC
:1002E0006072002103F0F7FF02237360BDE8F08124
:1002F00000F00F00B4590020F49A0020F89A002072
:100300000C9B0020289B0020509D0020509C00202A
:10031000909C0020109B002070B50D4C05460022DB
:1003200058212046FBF726F9002244F8040CC3218B
:1003300004F51770FBF71EF9261FC4F858022A4669
:100340003146044B0448BDE87040FFF73ABF00BF98
:10035000F89A00207497002000F00F0070B5054651
:1003600008460C46FFF71CFF20B907494FF4C1703F
:10037000FBF71CF90548064B00682A462146BDE8F4
:100380007040FFF71EBF00BF38780F00B45900203F
:10039000F49300200149FFF7E1BF00BF00F00F0018
:1003A00038B505460020FFF7B7FF044618B90349E2
:1003B0002846FFF7D3FF204638BD00BFF49A00203F
:1003C00010B5FFF777FC044608B1032010BDFFF716
:1003D0001FFF2046FFF7E4FF0028F7D0F5E70000F5
:1003E00010B5084C4FF40072FF21204603F073FF54
:1003F00020220021A4F1240003F06DFF002344F823
:100400002C3C10BD509B002029DF704738B50C4DA7
:100410000446D5F8643378B101330FD10022182196
:100420000430FBF7A7F82060214605F55970072234
:10043000BDE83840FFF7E8BF0E2038BD0820FCE7D4
:1004400000F00F0008B528B103491C2204F010F891
:10045000002008BD0E20FCE764F30F0010B5064C29
:10046000002218212046FBF785F854F8043C1B1A9B
:100470005842584110BD00BF68F30F0010B50A4C38
:10048000D4F82433D4F864231340013309D04FF453
:100490007F20FCF715F9C92221464FF47F20FCF795
:1004A0003DF9002010BD00BFF49A0020F8B5094FB7
:1004B000094CE41B0646E4080025A54201D10020B2
:1004C000F8BD57F83530304698470028F8D1013547
:1004D000F3E700BF30850F0038850F00F8B5094FEE
:1004E000094CE41B0646E40800250437A54201D167
:1004F0000020F8BD57F83530304698470028F8D12D
:100500000135F3E730850F0038850F0008B50C2260
:10051000002103F0E0FE024B00221A6308BD00BF79
:10052000F49A00204FF44053054A5968914203BFA2
:10053000986800F6FF706FF30B004FF4805070471F
:10054000DBE5B15108B5FFF7EDFF044B9B6918449B
:1005500000F6FF706FF30B0008BD00BFF49A002097
:100560004FF48050704700002DE9F84FDFF8AC9051
:1005700005460F46164698464FF0000BBBF1010F9B
:1005800024D0BBF1020F31D0FFF7DCFF8246DEB191
:100590001E4B1C6A631E5C425C41D14503D21C4960
:1005A000B120FBF703F8A9EB0A0AAA4500D31FB351
:1005B00004BB0BF1010BBBF1030FDFD1AA4522D322
:1005C0001448FFF7A3FF1BE03446E6E7FFF7AAFF56
:1005D0008246B8F1000F07D14FF440535C680E4BD0
:1005E000E41A18BF0124D8E75C46D6E701244FF48B
:1005F000805AD2E7AA4506D35FFA8BF3002BDFD1EE
:100600000020BDE8F88F0420FBE700BFF49A00202B
:1006100085780F000C9B0020DBE5B15100800E00B7
:1006200090F8552012F0FB0F07D190F864305BB1C1
:10063000836ECBB10B600120704712F0010303D031
:1006400090F8563003B1836D9207F2D590F85C2094
:10065000002AEED0054A006EC2F57E22904201D8F3
:100660000344E6E7042070470F20704700B00E00F7
:100670002DE9FF472F49304D8A6B304C304FDFF862
:10068000D490DFF8D4A06E465C313046FEF7BAFB5A
:1006900096E80F0085E80F0000212A4B39704FF4CF
:1006A00047722046C9F80010CAF80010EB6003F04A
:1006B00012FE254922462846FEF742FE20B90027B1
:1006C000384604B0BDE8F0873F78002FF7D094F8A3
:1006D0006C3194F800801BB3B8F1000FEFD194F89F
:1006E0007231002BEBD0DAF80020D9F80010304638
:1006F000FEF788FB96E80F0085E80F004FF4B27212
:10070000414604F5BA7003F0E6FD104904F5BA72EB
:100710002846FEF715FE0028D1D004F5BA7406E08D
:10072000B8F1000FCBD0A379002BC8D00834084B08
:100730001C60C5E7F49A0020449F00205C9F0020C5
:10074000749E00205D070F00507F0F00F07F0F00A8
:10075000409F0020589F0020549F002030B55B68C8
:10076000DA680D4B9A420AD1D0E901340B4802688D
:1007700012B90B490A681AB10A4B00221A7030BD2F
:100780001A4612F9015B002DFBDB23449B1A026021
:100790000B600122034BF1E7F07F0F00589F002010
:1007A000549F0020749E002010B54FF44052124C0C
:1007B000516800F50053A142586803D0031B58420A
:1007C000584110BD884214D11178142982BF506954
:1007D0000A4AB0FBF2F01A7898BF0020142A83BFAF
:1007E0005B69064AB3FBF2F30023C01A18BF01206D
:1007F000E7E70020E5E700BFDBE5B15140420F002D
:1008000000B591B0FCF780F818B10D49DB20FAF77C
:10081000CDFE0C4920226846FCF7C6F80A490B4871
:1008200040236A46FBF7BCFF18B10549E520FAF7FB
:10083000BDFE074B01221A7011B05DF804FB00BF2A
:10084000CF780F00E07D0F00F89E00207C7D0F0028
:10085000759E00202DE9F041CCB003AE80460D46D8
:10086000144600217C221F4604A82023336003F095
:1008700032FDA422002123A803F02DFD1A4B1B7882
:100880000BB9FFF7BDFF4DB3B8F1000F28D1DFF86A
:100890006880529B15490196CDF800803A4604A81D
:1008A000FCF718F8F0B9402C1CD1114F224629460C
:1008B000384603F0DDFD20213846FCF782F8CDE90B
:1008C00000740C493368424623A8FBF785FF0028D3
:1008D00014BF052001204CB0BDE8F0811320FAE7D9
:1008E0001620F8E70A20F6E7759E0020887D0F00A5
:1008F000B69E0020F89E0020969E0020F0B5ABB07A
:1009000004460D4616461F467C22202300210BA8D4
:10091000029303F0E0FC114B1B780BB9FFF770FF5B
:100920002FB12146202203A8FCF722F803AC02AB2A
:100930000B4F01930B49009733462A460BA8FBF750
:10094000C9FF48B920222146384603F0B4FCB0FA6A
:1009500080F040092BB0F0BD0020FBE7759E002021
:10096000769E0020887D0F0008B5044B986B08B177
:10097000FFF77EFE024B187008BD00BFF49A0020FE
:1009800078A2002010B5044658B1B0F5007F0AD80F
:10099000064B00221A70FFF723FD054B01209C63D4
:1009A00010BD0320FCE70420FAE700BF78A2002076
:1009B000F49A002070B50E4C0646E06BA36B42180B
:1009C0009A420D4611D85C300A462044314603F065
:1009D0004FFDE36B04F140022B4429463046E363AC
:1009E000FAF7C8FD2064012070BD0320FCE700BFBA
:1009F000F49A0020014B1878704700BF78A20020BD
:100A000013B5104C94F86C21B2B194F8D802B4F834
:100A1000DA2204F5377104F5B8740B4B1B680093A8
:100A20000A4B1B68FFF716FF012809D1201D02B0F1
:100A3000BDE8104000F0FAB9114610460434ECE766
:100A400002B010BD5C9F0020549F0020589F0020E2
:100A50002DE9F843224BD3E90E329A4206460D4661
:100A60003AD1DFF8848098F800704FB1FFF76AFD43
:100A70001C4B306029461868BDE8F843FFF7D0BD2D
:100A8000FFF7F6FD50B3FFF7BBFF012837600446C0
:100A90002F601ED1134BD3F8009029464846FFF72C
:100AA000BFFD0128044614D199F8551001290346C9
:100AB0008CBF0021012128683A46FFF755FD38B95F
:100AC000FFF740FD88F8004030602046BDE8F8831D
